S0120000536D617274486F7573652E7372656307
S11300000C9434000C94D1000C9404010C94510011
S11300100C9451000C9451000C9451000C94510018
S11300200C9451000C9451000C9451000C94510008
S11300300C9451000C9451000C9451000C945100F8
S11300400C9451000C9451000C9437010C94510001
S11300500C9451000C9451000C9451000C945100D8
S11300600C9451000C94510011241FBECFEFD8E022
S1130070DEBFCDBF11E0A0E0B1E0EAE5F3E002C0ED
S113008005900D92AA32B107D9F721E0AAE2B1E0B6
S113009001C01D92A434B207E1F70E94C2000C947F
S11300A0AB010C940000E0ECF0E0908195FFFDCFF3
S11300B08093C6000895CF93DF93EC018881882351
S11300C031F021960E94530089918111FBCFDF9179
S11300D0CF91089580E480937C00EAE7F0E01082F9
S11300E08081806880838081816080838081826058
S11300F08083808184608083808186FDFDCF8091B0
S11301007800909179000895ECE7F0E08081807F99
S113011082608083EAE7F0E080818064808380816C
S113012086FDFDCF809178009091790090933901FC
S1130130809338014AE050E06AE271E00E946B016A
S11301408BE091E00E9453008AE291E00E945B0000
S11301502FEF83ED90E3215080409040E1F700C001
S1130160000088E091E00E945B0008951092C500B1
S113017087E68093C40086E08093C20088ED809374
S1130180C10008950E94B60083E08DBB809369008E
S113019088E080936B0078940E946A000E94840037
S11301A0FFCF1F920F920FB60F9211242F933F93FC
S11301B04F935F936F937F938F939F93AF93BF936B
S11301C0EF93FF931AB884E089B980EF84B983B1BF
S11301D083B983B183B984E191E00E945B0089E132
S11301E091E00E945B00FF91EF91BF91AF919F91CD
S11301F08F917F916F915F914F913F912F910F90CC
S11302000FBE0F901F9018951F920F920FB60F926A
S113021011242F933F934F935F936F937F938F9307
S11302209F93AF93BF93EF93FF931AB819B880EFDE
S113023084B983B183B983B1896183B98CE191E0D5
S11302400E945B0089E191E00E945B00FF91EF91C5
S1130250BF91AF919F918F917F916F915F914F91DA
S11302603F912F910F900FBE0F901F9018951F92E2
S11302700F920FB60F9211248F939F938091C60013
S1130280863421F494E094B91A9A1CC0823449F457
S113029090EF94B993B193B993B1986193B91B9AC0
S11302A011C0853439F493B1916393B993B19861D2
S11302B093B908C0833431F493B1916393B993B182
S11302C0986193B98093C6009F918F910F900FBE50
S11302D00F901F9018954532510520F4423010F0CC
S11302E00C947601FB011082CB010895BB274A30A0
S11302F031F4992322F4BDE2909581959F4F0C949B
S11303008201BB27FB015527AA27880F991FAA1F23
S1130310A41710F0A41B83955051B9F7A05DAA331C
S113032008F0A95DA193009779F7B111B1931192E7
S1130330CB010C949B01DC01FC01672F71917723A5
S1130340E1F7329704C07C916D9370836291AE178C
S10D0350BF07C8F30895F894FFCF27
S113035A54656D706F75740009090076696E6400DE
S113036A4C44520046697265000A0D00696E627255
S10D037A6F747473616C61726D009E
S9030000FC
